S31508000000600B002019020008411D0008C51B0008E6
S315080000103D1D000879040008311E00080000000094
S31508000020000000000000000000000000251E000877
S31508000030C504000800000000451D0008291E000828
S3150800004033020008330200083302000833020008AE
S31508000050330200083302000833020008330200089E
S31508000060330200083302000833020008330200088E
S31508000070330200083302000833020008330200087E
S31508000080330200083302000833020008950400080A
S315080000907D040008890400083302000833020008BA
S315080000A0330200083302000833020008330200084E
S315080000B0330200083302000833020008330200083E
S315080000C0330200083302000833020008330200082E
S315080000D0330200083302000833020008330200081E
S315080000E0330200083302000833020008000000004B
S315080000F000000000000000000000000000000000F2
S315080001000000000000000000330200083302000867
S3150800011033020008330200083302000833020008DD
S3150800012033020008330200083302000833020008CD
S31508000130330200080000000000000000B9040008AF
S31508000140A1040008AD0400083302000833020008C1
S3150800015000F002F800F050F814A696E8000CB24435
S31508000160B344DA4501D100F047F8BAE80F000FA604
S3150800017096E83000A5EB040504EB0607AAEB07048E
S31508000180A7F101074FEA15154FEA3414A4F1010443
S31508000190AC4201D300F030F813F0010F18BFFB1A78
S315080001A043F0010300F001F8DBE71847F8330000D5
S315080001B018340000103A24BF78C878C1FAD8520714
S315080001C024BF30C830C144BF04680C6070470000C3
S315080001D0704700000023002400250026103A28BF97
S315080001E078C1FBD8520728BF30C148BF0B6070479B
S315080001F01FB51FBD10B510BD00F0DBF81146FFF79F
S31508000200F7FF01F033FF00F0F9F803B4FFF7F2FF48
S3150800021003BC00F001F90000094880470948004777
S31508000220FEE7FEE7FEE7FEE7FEE7FEE7FEE7FEE798
S31508000230FEE7FEE704480549054A064B70470000F5
S315080002402D1E00085101000860050020600B0020E3
S31508000250600700206007002053EA020C00F069805E
S315080002602DE9F04B4FF00006002B1FBFB3FA83F5BC
S3150800027003FA05F424FA05F65E4012BF1643B2FAED
S3150800028082F502FA05F4C5F120051EBF22FA05FC1F
S3150800029044EA0C04203556EA044C4FEA144418BFC5
S315080002A0641C4FF000084FF00009904271EB030CF4
S315080002B039D3002919BFB1FA81F701FA07F6B0FA5E
S315080002C080F700FA07F6C7F120071EBF20FA07FCD9
S315080002D046EA0C062037B6FBF4FCA7EB0507103FE9
S315080002E007F01F0BCBF120062CFA06F60CFA0BFBCF
S315080002F044BFB3460026202FA4BF5E464FF0000B2E
S315080003005BEA060C08BF4FF0010B19EB0B0948EB2B
S315080003100608ABFB027C06FB02CC0BFB03CCC01B1E
S3150800032071EB0C01C1E70B46024641464846BDE85B
S31508000330F08B13B5084318BF4FF0FF300146AFF3F3
S315080003400080BDE81C40704710B5203AC0F00B800D
S31508000350B1E81850A0E81850B1E81850A0E81850AD
S31508000360203ABFF4F5AF5FEA027C24BFB1E8185023
S31508000370A0E8185044BF18C918C0BDE810405FEA85
S31508000380827C24BF51F8043B40F8043B08BF704701
S31508000390D20728BF31F8023B48BF11F8012B28BF06
S315080003A020F8023B48BF00F8012B7047704770479A
S315080003B07047754600F02CF8AE4605006946534668
S315080003C020F00700854618B020B5FFF733FFBDE8D3
S315080003D020404FF000064FF000074FF000084FF09E
S315080003E0000BAC46ACE8C009ACE8C009ACE8C009EB
S315080003F0ACE8C00921F007018D46704710B50446E0
S31508000400AFF300802046BDE81040FFF7FEBE0000AF
S31508000410004870471800002001491820ABBEFEE7C7
S31508000420260002007047000010B58AB00446002076
S315080004300121CDE90500CDE90000CDE902000490CF
S31508000440CDE9071109906946204600F0BBF8002857
S3150800045018BF00F039F8204600F000FE002818BF43
S3150800046000F032F82046132100F034F8002818BFAF
S3150800047000F02AF80AB010BDFEE7000040F29440EA
S31508000480C2F2000000F0BAB940F29440C2F200008D
S3150800049000F0B4B940F29440C2F2000000F0AEB9E0
S315080004A040F2F840C2F2000000F0A8B940F2F84065
S315080004B0C2F2000000F0A2B940F2F840C2F2000011
S315080004C000F09CB970470000EFF3108072B600F098
S315080004D0CDBF000090F82020013A012A08D800680C
S315080004E000F114020020136819431160704700BF19
S315080004F000F1240201204FF480211368194311608A
S3150800050070470000B0B590F820E0D0F800C0AEF112
S31508000510010EBEF1010FDCF808E011D81EF0E05F0D
S3150800052018D0CEF3016EBEF1030F1DD100F12403DE
S3150800053001204FF400011A6811431960B0BD00BFCD
S3150800054000F1240301204FF480211A681143196031
S31508000550B0BD00BF00F1240301204FF400111A6852
S3150800056011431960B0BD00BF012000FA0EF01860F3
S31508000570886838B14B68CC6844EAC30343EA000587
S3150800058004E000BF0868CB6843EA40550CF5C07420
S315080005904FEA0E10255004EB0E130D69184640F865
S315080005A0045F097D012903D1016841F48071016066
S315080005B050680121D8601068986000201A681143B5
S315080005C01960B0BD90F82020013A012A30D8B0B59C
S315080005D046F20060C4F20000026842F001020260BE
S315080005E0026822F47C520260D1F814E0CC694A6AA7
S315080005F00368012C43EA022202600EF01F024FF044
S31508000600010303FA02F2C3696FEA020C23EA020342
S31508000610C36113D02CBBC36803EA0C03C360CB6861
S315080006208C8844EA034300EBCE0423640B4611E0AE
S31508000630416A41F48021416201207047C36813432F
S31508000640C3600B688C8844EA034300EBCE0423643A
S3150800065001F10C038C681B8843EA044300EBCE04C3
S31508000660636443688D6943EA0204D1F810E0096AB5
S31508000670002D08BF03EA0C0444604369BEF1000F6D
S3150800068043EA020408BF03EA0C040129446102D1C3
S31508000690C1691143C161016821F0010101600020AF
S315080006A0B0BD00007047000010B590F820C0ACF14E
S315080006B0010CBCF1010F79D8D0F800C000290CBF95
S315080006C0DCF80CE0DCF810E05FEA8E7E78D00CF5FA
S315080006D0D87C4FEA011E5CF80E4014F004049460BE
S315080006E05CF80EE00CEB011C19BF4FEADE045460FF
S315080006F04FEA5E541460DCF80040002904F0020456
S31508000700D460DCF8044004F00F041461DCF80440FB
S31508000710C4F307249461DCF804404FEA1444546196
S31508000720DCF808201A70026802EB0112D2F8B82128
S315080007304FEA12225A70026802EB0112D2F8B82167
S315080007404FEA12429A70026802EB0112D2F8B821F7
S315080007504FEA1262DA70026802EB0112D2F8BC2183
S315080007601A71026802EB0112D2F8BC214FEA122272
S315080007705A71026802EB0112D2F8BC214FEA124202
S315080007809A71026802EB0112D2F8BC214FEA126292
S31508000790DA7100680CBF00F10C0100F110010020AD
S315080007A020220B681A430A6010BD00BF00F124011D
S315080007B001204FF480220B681A430A6010BD00BF5F
S315080007C000F1240101204FF400120B681A430A6055
S315080007D010BD000090F820100139012984BF0020BF
S315080007E070470068816882688068C1F38061C2F3D7
S315080007F0C0621144C0F30070084470472DE9F04FF9
S3150800080081B0044600684669D0F804908768D0F835
S315080008100CB0D0F810A0D0F81880F10704D1002544
S3150800082030071CD423E000BFF9070FD00121BA070F
S31508000830816007D4780700F1A780380700F1AE80F9
S31508000840342000E028202158204688470025F8054E
S3150800085000F18680F80300F1AA80300707D51BF05F
S31508000860100004D0206845F400751021C160700797
S3150800087008D51BF0080005D02068616C0822C26004
S3150800088020468847B00706D52068C068800702D08A
S31508000890216C20468847700607D51AF0100004D048
S315080008A0206845F4806510210161B00608D51AF064
S315080008B0080005D02068E16C0822026120468847B6
S315080008C0F00606D520680069800702D0A16C20468C
S315080008D08847B00308D519F0100005D02068216DA7
S315080008E01022426020468847F00308D519F0080010
S315080008F005D02068616D082242602046884730048A
S3150800090040F190805FEA497040F1898006F4807072
S3150800091008EA102028435FEA8871014648BF41F07B
S315080009200201B20558BF01465FEA48700D4648BF46
S3150800093045F00405700558BF0D46300540F16F8037
S3150800094018F070006BD010380009052862D8DFE867
S3150800095000F0035B53574F5F45F008055AE000BFA8
S3150800096020684FF48071BA05816005D478050FD4E4
S31508000970380517D4A16B00E0E16A20468847F803DA
S315080009807FF56BAF13E000BF4FF400655FE700BF6C
S3150800099005F50055F8037FF560AF08E04FF480557C
S315080009A055E700BF05F58045F8037FF556AF206883
S315080009B04FF48031BA03816006D478030CD4380327
S315080009C010D4E16B01E000BF216B20468847300751
S315080009D03FF545AF4BE700BF05F5004530073FF546
S315080009E03EAF44E705F5803530073FF538AF3EE7BB
S315080009F045F080050EE000BF45F020050AE000BF7F
S31508000A0045F0400506E000BF45F0100502E000BFCE
S31508000A1045F480752068816921F07001816120683C
S31508000A200421416055B1606AA16D40EA050220467D
S31508000A30626201B0BDE8F04F084700BF01B0BDE8EB
S31508000A40F08F0000002804BF012070472DE9F0410F
S31508000A50044690F82000002849D141F2490141F2A4
S31508000A60BD0541F2C50241F24D08C0F60001C0F6C7
S31508000A700005C0F6000241F2CD0341F2C900C0F6F6
S31508000A800008C0F6000341F2B90641F2C107C0F6F4
S31508000A900000C4E90A5204F130026164E16D41F2D2
S31508000AA0550C41F2510EC0F60006C0F60007C8C242
S31508000AB0C4E90F0841F2590041F2D10240F2A56398
S31508000AC0C0F6000CC0F6000EC0F60000C0F6000224
S31508000AD0C0F60003C4E912CE20656265A36521B994
S31508000AE040F6CD31C0F60001E1652046884720680A
S31508000AF0016841F00101016000F0FCFB054600BFFA
S31508000B0020684168C90705D100F0F4FB401B0B2893
S31508000B10F6D310E0016821F00201016000F0EAFB5B
S31508000B20054600BF2068416889070FD500F0E2FB3B
S31508000B30401B0B28F6D3606A052140F4003060623A
S31508000B40012084F82010BDE8F08100BF217E0268EC
S31508000B50012922F0800208BF80320260617E0268A5
S31508000B60012922F0400208BF40320260A17E0268D5
S31508000B70012922F0200208BF20320260E17E0268C5
S31508000B80012922F0100218BF10320260217F026884
S31508000B90012922F0080208BF08320260617F026854
S31508000BA0012922F0040208BF04320260271D8ECFF5
S31508000BB066691A433A43324301391143C161002039
S31508000BC00121606284F82010BDE8F08170B586B016
S31508000BD0006846F60001C4F2000188424FF00001A1
S31508000BE0CDE90411CDE9021146D046F20041C4F21E
S31508000BF00001884240F0A58040F29041C2F200010F
S31508000C000A6841F21C00C4F20200531C0B6042B988
S31508000C10016841F000710160016801F000710191FD
S31508000C20019950F8041C40F6000441F0040140F80C
S31508000C30041C50F8040CC4F2010400F004000190EE
S31508000C4001984FF400600290002002ADCDE9030040
S31508000C502046294600F03EFA4FF4805002900220C2
S31508000C600390032005902046294600F033FA1525FF
S31508000C70142413264DE000BF41F21C00C4F2020002
S31508000C80016841F080610160016801F080610191AD
S31508000C90019940F29041C2F200010A68531C0B60A8
S31508000CA042B9016841F000710160016801F0007104
S31508000CB00191019950F8041C02AE41F0080140F870
S31508000CC0041C50F8040C314600F008000190019805
S31508000CD0202002900020CDE9030040F60000C4F26F
S31508000CE0010000F58065284600F0F4F9022003901B
S31508000CF003204024059028463146029400F0EAF97C
S31508000D000420C4F201000168412541F0E8613F264C
S31508000D10016030460021002200F06CFB304600F0EE
S31508000D2057FB20460021002200F064FB204600F015
S31508000D304FFB28460021002200F05CFB284600F005
S31508000D4047FB06B070BD0000BAB190F82030012B01
S31508000D5010D10E2911D8DFE801F0093F33372743B0
S31508000D60473B4F2F4B232B1B1F0000BF82620020DF
S31508000D70704700BF90F8203033B1416A41F48001D2
S31508000D8041620120704700BF0E2905D00D29F4D114
S31508000D90C2650020704700BF02660020704700BF8A
S31508000DA042650020704700BF82630020704700BF7D
S31508000DB082650020704700BFC2640020704700BFEC
S31508000DC002630020704700BF42630020704700BFDF
S31508000DD042640020704700BFC2620020704700BF0F
S31508000DE0C2630020704700BF02640020704700BF3E
S31508000DF002650020704700BF82640020704700002B
S31508000E0070B58CB005AC03AB00212246FFF74CFC4D
S31508000E10DDE90760042E08BF043425689DF82440E0
S31508000E20022801D1012006E024B1684603A922461A
S31508000E30FFF78AFA002040F28001C2F200018A78A0
S31508000E408B79013202F00F029A421DD0321F8B783D
S31508000E5040F29006B2FA82F2C2F20006520906EB96
S31508000E60031383F8052283F80602DDE90020C3F898
S31508000E70005283F80442C3F80C02C3F808228878A3
S31508000E80013000F00F008870002001F0E5F90CB081
S31508000E9070BD000070B58CB005AC03AB00212246CE
S31508000EA0FFF702FCDDE90760042E08BF0434256855
S31508000EB09DF82440022801D1012006E024B16846A5
S31508000EC003A92246FFF740FA002040F28001C2F249
S31508000ED00001CA78CB79013202F00F029A421DD07E
S31508000EE0321FCB7840F29006B2FA82F2C2F20006BE
S31508000EF0520906EB031383F8052383F80603DDE995
S31508000F000020C3F8005383F80443C3F80C03C3F85E
S31508000F100823C878013000F00F00C870012001F0DE
S31508000F209BF90CB070BD0000F0B58BB004AC02ABF9
S31508000F30012122460127FFF7B7FBDDE90660042EEB
S31508000F4008BF043425689DF82040022806D024B13D
S31508000F50684602A92246FFF7F7F9002740F2800003
S31508000F60C2F2000081788279013101F00F019142C5
S31508000F701DD0311F827840F29003B1FA81F1C2F296
S31508000F800003490903EB021282F80512DDE9003174
S31508000F90C2F8005282F8044282F80672C2F80C12AD
S31508000FA0C2F808328178013101F00F018170002002
S31508000FB001F052F90BB0F0BDF0B58BB004AC02AB42
S31508000FC0012122460127FFF76FFBDDE90660042EA3
S31508000FD008BF043425689DF82040022806D024B1AD
S31508000FE0684602A92246FFF7AFF9002740F28000BB
S31508000FF0C2F20000C178C279013101F00F019142B5
S315080010001DD0311FC27840F29003B1FA81F1C2F2C5
S315080010100003490903EB021282F80513DDE90031E2
S31508001020C2F8005382F8044382F80673C2F80C1318
S31508001030C2F80833C178013101F00F01C1700120EF
S3150800104001F00AF90BB0F0BD7047000070470000C8
S31508001050704700007047000070470000B0B50446AE
S3150800106090F8200001281DD1022084F8200020686D
S31508001070016821F00101016000F03CF9054600BF56
S3150800108020684068C00713D000F034F9401B0B28CD
S31508001090F6D3606A40F400306062052084F82000C8
S315080010A00120B0BD606A40F4002060620120B0BD36
S315080010B000206062B0BD0000704700007047000065
S315080010C07047000070470000704700007047000036
S315080010D0704700002DE9F04F82B00E68002E00F030
S315080010E0FF8040F20C4C40F2004E41F20042C4F23E
S315080010F0010CC4F2010EC4F20102042700240123E4
S315080011004FF0000A4FF00009904208BF03270097E6
S3150800111049E000BF41F20002C4F20102009F90427A
S3150800112008BF022704F00C030F229A402BEA02029A
S3150800113007FA03F34FEA9A051A4346F825204E683C
S31508001140F203DEF8002054BF22EA080242EA080247
S31508001150CEF80020DEF80420B30354BF22EA0802C2
S3150800116042EA0802CEF80420F302DEF8082054BF4B
S3150800117022EA080242EA0802B302CEF80820DCF89E
S3150800118000204FF0010354BF22EA080242EA08028F
S31508001190CCF800200E680AF1010A36FA0AF204F1C0
S315080011A0040400F09D8003FA0AFB16EA0B08F1D046
S315080011B04E684FF6FF72C1F21002964212DC122EEA
S315080011C056D8DFE806F0350B4D4955555555555552
S315080011D05555555555555545510000BFD1F80C90F4
S315080011E046E000BF4FF6FF72C1F2210296420FDCBD
S315080011F00022C1F2110296421AD00022C1F212024E
S31508001200964215D00022C1F22102964210D02FE054
S315080012100022C1F2220296420AD00022C1F231020D
S31508001220964205D00022C1F23202964220D100BF72
S315080012308A684AB1012A14BFC0F814B0C0F810B0C1
S315080012404FF0080914E000BF4FF0040910E000BF92
S31508001250CA6802F104090BE04FF0000908E000BF74
S31508001260CA6802F1080903E0CA6802F10C0900BF5E
S3150800127002462646B8F5807F24BF0432203E17680A
S315080012800F25B54027EA050509FA06F63543156020
S31508001290CA79D2067FF57EAF41F21803C4F202037B
S315080012A01A68AEF57E7642F001021A601A6802F0F4
S315080012B001020192019A2AF0030256F802B040F69A
S315080012C00002C4F20102904208D040F60042C4F27D
S315080012D0010290427FF41EAF012723E7002721E78A
S315080012E002B0BDE8F08F00008068084018BF0120F2
S315080012F07047000040F25C50C2F200000068704778
S3150800130040F20C0040F25C51C2F20000C2F2000149
S3150800131000780A68104408607047000080B542F2F9
S315080013200000C4F20200016841F0100101600320C8
S3150800133000F08CF8002000F005F800F027F80020EF
S3150800134080BD000070B540F20C06C2F2000640F2FD
S3150800135014013278C2F200014FF47A730968B3FBBC
S31508001360F2F20446B1FBF2F1084600F00BFC0F2C32
S315080013704FF0010508D838B94FF0FF302146002252
S31508001380002500F037F87460284670BD82B041F237
S315080013901800C4F202000168022241F0010101604E
S315080013A0016801F0010101910199416841F08051FC
S315080013B04160406800F08050009000980420C4F214
S315080013C00100016862F31A61016002B0704700000B
S315080013D0002848BF704700F01F01012202FA01F1F8
S315080013E01C2202EAD0004EF20012CEF20002815010
S315080013F07047000010B54EF60C5CCEF2000CDCF817
S315080014000030C3F3022E8EF00704042C28BF0424F0
S31508001410BEF103034FF0FF3E0EFA04F438BF002373
S31508001420A14399400EFA03F39A43114300F00F02C1
S3150800143000F160430901043A03F564436244002855
S3150800144048BF02F10C03197010BD00004EF60C518E
S31508001450CEF200010A684FF6FF031A4060F30A222B
S3150800146042F0806040F0FD700860704700F0E2FCD2
S315080014704EF61050CEF200000268012922F004024E
S3150800148002600FBF30BF40BF20BF20BF70470000BB
S31508001490002804BF012070472DE9F04381B042F2CD
S315080014A00008C4F202080446D8F800000D4600F009
S315080014B0070081420DD9D8F8000020F0070028431C
S315080014C0C8F80000D8F8000000F00700A84240F06D
S315080014D08080206841F204098107C4F2020917D501
S315080014E0410705D5D9F8001041F4E061C9F80010A4
S315080014F0010705D5D9F8001041F46051C9F8001064
S31508001500D9F80010A26821F0F0011143C9F80010BB
S31508001510C00755D1D8F8000000F0070085420CD264
S31508001520D8F8000020F007002843C8F80000D8F8CB
S31508001530000000F00700A8424BD12068410707D5F4
S31508001540D9F80010E26821F4E0611143C9F80010E7
S31508001550000708D5D9F80000216920F4605040EA50
S31508001560C100C9F80000D9F80020C2F3810147F686
S315080015704000C0F27D10DFE801F00307550300BF05
S3150800158041F20020C0F27A00D9F8001043F28452E2
S31508001590C1F30311C0F60002515C40F2140220FAAE
S315080015A001F140F21000C2F200000068C2F2000227
S315080015B01160FFF7C7FE002001B0BDE8F08300BF49
S315080015C0606859F8041C022808D0012826D1890326
S315080015D006D4012001B0BDE8F08300BF8901F8D523
S315080015E0D9F8001021F003010843C9F80000FFF7F5
S315080015F081FE064641F28837D9F80000616800F096
S315080016000C00B0EB810F3FF485AFFFF773FE801B2C
S31508001610B842F1D9032001B0BDE8F0838907D8D5CF
S31508001620DEE700BF43F27651C2F38344C0F60001F9
S31508001630095DD20306D440F60010C0F23D004843C7
S31508001640A2E700BFD9F8282043F2945302F00F020C
S31508001650C0F600039A5CD9F82830DB0304D4484363
S31508001660B0FBF2F015E000BFD9F82830D9F8287099
S315080016704FF28006C7F30327C0F2FA26C3F3031313
S3150800168007FB00600133A0FB0101A3FB0223FEF761
S31508001690E3FDA4F10D01B1FA81F14909C84073E7E8
S315080016A0002804BF012070472DE9F04182B00446A6
S315080016B0007841F20006C007C4F202060CD0706832
S315080016C000F00C00042840F0A1803068800303D5A0
S315080016D0A068002800F0FA81207880071BD570687A
S315080016E010F00C0F09D0706800F00C00082840F0C4
S315080016F0A7807068C00300F1A3803068800703D50F
S315080017006069012840F0E2813068A16920F0F8009C
S3150800171040EAC10030602078000733D420784007BB
S315080017204CD4E06A002800F0B9817168C90308D56D
S31508001730716801F00C01082903D1F16AC90300F1A7
S31508001740C581022840F0E8803068C00006D5F06AF6
S31508001750616B00F0F000884240F0B8816827C4F257
S31508001760422700203860FFF7C5FD054630680001AE
S3150800177040F17681FFF7BEFD401B64284FF0030059
S31508001780F4D9F1E1E069002800F084806820C4F209
S3150800179042200121C0F81814FFF7ACFD054600BF2A
S315080017A0706A800700F18E80FFF7A4FD401B0228AF
S315080017B0F6D9032002B0BDE8F08100BFF0695FEA00
S315080017C0C00808D4F06940F08050F061F06900F074
S315080017D080500090009847F20007C4F20007386866
S315080017E0C00549D4386840F480703860FFF782FD38
S315080017F0054600BF3868C0053ED4FFF77BFD401B91
S315080018006428F7D9032002B0BDE8F081706800F0BB
S315080018100C00082803D17068C0033FF556AFA168CD
S315080018203068002900F0EE80B1F5A02F00F0E280C4
S31508001830B1F5803F40F0FC8040F48030FEE000BF08
S315080018406069002840F26800C4F2422000F07E80F9
S31508001850012140F8681CFFF74DFD054630688007F2
S315080018603FF552AFFFF746FD401B0228F6D9032085
S3150800187002B0BDE8F08100BF2169306A002900F096
S315080018807F80052974D0012940F0928040F001003C
S3150800189094E000BF6820C4F242200021C0F8181462
S315080018A0FFF728FD054600BF706A80077FF536AF4B
S315080018B0FFF720FD401B0228F6D9032002B0BDE839
S315080018C0F08100BF40F21400C2F20000006844F63E
S315080018D0D351C1F26201A0FB0101480A019000BF81
S315080018E000BF0198411E002801913FF417AF00BFC1
S315080018F00198411E002801913FF410AF00BF0198DE
S31508001900411E002801913FF409AF00BF0198411E0E
S3150800191000280191E4D101E7F06A002120F4803023
S31508001920F0626820C4F242200160FFF7E3FC054636
S315080019303068000140F1B280FFF7DCFC401B6428E8
S31508001940F6D9032002B0BDE8F08100BF002140F8B7
S31508001950681CFFF7CFFC0546306880077FF5DBAECD
S31508001960FFF7C8FC401B02284FF00300F4D9FBE040
S3150800197040F004003062306A40F001001EE000BF0B
S3150800198020F001003062306A20F004003062FFF770
S31508001990B1FC054641F28837306A800720D5FFF743
S315080019A0A9FC401BB8424FF00300F5D9DCE000BFA4
S315080019B020F001003062306A20F004003062FFF740
S315080019C099FC054641F28837306A800708D4FFF744
S315080019D091FC401BB842F7D9032002B0BDE8F0815C
S315080019E0B8F1000F3FF59DAEF06920F08050F06128
S315080019F097E600BF40F480203060306840F48030BD
S31508001A001CE000BF20F480303060306820F480206D
S31508001A103060FFF76FFC0546306880037FF55CAEE3
S31508001A20FFF768FC401B64284FF00300F4D99BE0DD
S31508001A3020F480303060306820F480203060FFF772
S31508001A4059FC0546306880033FF546AEFFF752FC61
S31508001A50401B6428F6D9032002B0BDE8F08100BF18
S31508001A60F06AD4E90C1220F0F0001043F062F06A34
S31508001A7020F470600843F06201203860FFF73AFCF2
S31508001A80054600BF3068000108D4FFF733FC401B49
S31508001A9064284FF00300F5D966E000BF256A8DB1CA
S31508001AA0706800F00C00082814D1012D0ED070685B
S31508001AB0616A00F480328A4208D1A16A00F4701083
S31508001AC0884203D1002002B0BDE8F081012002B0AF
S31508001AD0BDE8F0816827C4F24227002047F8080CC1
S31508001AE0FFF708FC022D05460CD100BF30688001BF
S31508001AF014D5FFF7FFFB401B02284FF00300F5D96A
S31508001B0032E000BF30688001DCD5FFF7F3FB401BED
S31508001B1002284FF00300F5D926E000BF606AB0F549
S31508001B20803F09D1F16A6268E3681143F162F16A9C
S31508001B3021F00F011943F1627168A26A21F4741148
S31508001B40114308437060012047F8080CFFF7D2FBE1
S31508001B50044600BF30688001B4D4FFF7CBFB001BF6
S31508001B6002284FF00300F5D902B0BDE8F081000065
S31508001B704EF21000CEF20000016841F00201016049
S31508001B8070470000411E0020B0EB116F1CBF0120FA
S31508001B9070474EF21002CEF2000251604EF6235103
S31508001BA0CEF20001F0230B70072190601160704798
S31508001BB04EF21000CEF20000016821F00201016029
S31508001BC070470000FEE7000040F28002C2F2000201
S31508001BD002EB41021118125C084610F8043F9A42BB
S31508001BE002BF0020C0B270470A7803789A4205D926
S31508001BF009780078081AC0B2704700BF00780978DB
S31508001C00081A1030C0B2704710B540F2944046F238
S31508001C100041C2F20000C4F20001042200234FF082
S31508001C20012480E80E0000F10C014FF4602C4FF4FB
S31508001C30801E81E8085084618383FEF703FF00282D
S31508001C4008BF10BDBDE81040FEF73EBC10B540F217
S31508001C50F84046F60001C2F20000C4F20001042270
S31508001C6000234FF0012480E80E0000F10C014FF428
S31508001C70602C4FF4801E81E8085084618383FEF748
S31508001C80E1FE002808BF10BDBDE81040FEF71CBCE9
S31508001C90F0B585B0002641F21800CDE90366CDE916
S31508001CA00166C4F20200016840F6000441F0200112
S31508001CB001600168C4F2010401F020010091009955
S31508001CC0016801AD41F0040101600168012701F0D6
S31508001CD0040100910099016841F010010160016852
S31508001CE001F0100100910099016841F008010160B6
S31508001CF00068294600F00800009000984FF400405C
S31508001D00CDE9010620460397FFF7E4F94FF4E050C2
S31508001D1001A9C1C104F500602946FFF7DBF94FF4B4
S31508001D208050CDE901070320049004F58060294618
S31508001D300396FFF7CFF905B0F0BD0000FEE70000F7
S31508001D40FEE700007047000080B540F28003C2F24B
S31508001D50000303EB410303EB000C1CF804EF1B5CC8
S31508001D609E4504BF022080BD40F290039CF800E027
S31508001D70C2F2000303EB412101EB00204FEA0E11EA
S31508001D80415800EB0E10116041688368C0685160C5
S31508001D909360D0609CF80000013000F00F008CF8CA
S31508001DA00000002080BD0000B0B5012884BF0320D4
S31508001DB0B0BD40F28003C2F2000303EB41031C5C92
S31508001DC003EB000C01349CF8043004F00F049C4229
S31508001DD004D1012400F040FA2046B0BD40F2900438
S31508001DE0C2F200049CF8003004EB412101EB00210B
S31508001DF001EB03144FEA031E1368556841F80E30C9
S31508001E0065609168D268A160E2609CF800100024C1
S31508001E10013101F00F018CF8001000F01DFA204680
S31508001E20B0BD000070470000FFF76ABA70470000AF
S31508001E30FEE700004EF60C50BFF34F8FCEF20000BF
S31508001E400168042201F4E061C0F2FA52114301600C
S31508001E50BFF34F8F00BF00BF00BF00BFFAE7000007
S31508001E602DE9F04F81B00C4609688046B1F55D7FD3
S31508001E7068D040F27330814240F0EE80607A40F2DA
S31508001E80000AA0F1420140F288098F29C2F2000A2D
S31508001E9098BF8AF80000C2F2000999F80100C8B98B
S31508001EA099F80000411C142889F8001012D39AF8F2
S31508001EB0000000F03BFA0021C4F2B42101F01AFA3E
S31508001EC00021C4F2C82101F09BF8CAE901000120EB
S31508001ED089F80100608948F2440100BACFF6FF711B
S31508001EE001EB104000F0B2FD0023C4F259030022B2
S31508001EF04FF0000B00F04EFC00F072FB4CF60001B0
S31508001F00C4F6AF01064601F07BF80746DAE9010593
S31508001F10394600F0DDFFCAF804002846394600F0C5
S31508001F20D7FFCAF8080026F000404FF0804101F0BC
S31508001F3046F800284CD1D9F804000130C9F8040045
S31508001F408AE000BF40F20005C2F200056868B421C5
S31508001F50A17300F091FF0023C4F25903002200F098
S31508001F609FFD48F20003C4F25603002200F012FC5B
S31508001F7000F036FB0021C4F2C821064601F026F817
S31508001F8030B900200026C4F2B420C4F2C82668601E
S31508001F903046002101F021F8002840F28800C2F2FC
S31508001FA0000018BF002640684EF66121884213DB00
S31508001FB0287800F0BBF90021C4F2B421074601F0E5
S31508001FC099F90021C4F2C82101F01AF8A8602CE09A
S31508001FD0C9F804B040E000BFA86800F04DFF002330
S31508001FE0C4F25903002200F05BFD48F20003C4F274
S31508001FF05603002200F0CEFB00F0F2FA0021C4F2EC
S31508002000C821074600F0E2FF40B90020C4F2B42018
S315080020100027A860C4F2C82707E000BF3846002199
S3150800202000F0CDFF002808BF00273046314600F0F3
S315080020304FFF0025C4F22015294600F049FF01F09C
S31508002040D5F820723846394600F042FF294600F096
S315080020503FFF01F0CBF86072B8FA88F0400900211A
S31508002060224601B0BDE8F04FFFF79EBE94B0FFF7D9
S3150800207055F9092006904FF48030022508900790FC
S31508002080CDE90E504FF4E010CDE910054FF4C060CD
S31508002090042112904020002409910121139006A8DA
S315080020A00C94CDE90A440B910D91FFF7F9FA20B18A
S315080020B0EFF3108072B6FFF7D9F90F20CDE90105C5
S315080020C08020CDE9030401A802210594FFF7E0F971
S315080020D020B1EFF3108072B6FFF7C8F9702040F60A
S315080020E01047C4F242200121C4F201070160FFF73C
S315080020F0CFFDFFF789FDFFF7A9FD07F57C7420469C
S315080021004FF480514FF48058FFF7EEF820464FF40D
S315080021100061FFF7E9F820464FF48061FFF7E4F81D
S31508002120A7F582604FF40041FFF7DEF840F29449C4
S31508002130C2F2000940F60162C0F6000248460621CE
S31508002140FEF702FE40F62972C0F60002484608214C
S31508002150FEF7FAFD40F2F84AC2F2000A40F6956226
S31508002160C0F6000250460621FEF7EEFD40F6B972AB
S31508002170C0F6000250460821FEF7E6FD4846022151
S31508002180FEF7A8F950461021FEF7A4F94846FEF7CF
S315080021904BF95046FEF748F940F27804C2F20004BB
S315080021A000254FF0805B06AE0EE000BF0020C7F8A2
S315080021B0008000F051F8012000F04EF8D9F8000030
S315080021C08069DAF800008069FFF794F86168401AB8
S315080021D0B0F57A7F1CD3FFF78DF8606000200121E7
S315080021E0FFF7F2FCA0B901200121FFF7EDFC78B951
S315080021F020780130C1B21529207009D3FFF7D8FC21
S3150800220000200121FFF734F9FFF7B2FC257000BF63
S3150800221000200121FFF7D8FC58B1002001213246E1
S31508002220C7F800B02570FFF78FFD00203146FFF78D
S3150800223017FE01200121FFF7C7FC0028B6D00120B0
S3150800224001213246C7F800B02570FFF77DFD012051
S315080022503146FFF705FEA9E7F0B58DB040F28006D6
S31508002260C2F200063518315C2A79914208D0315CF1
S315080022702A79914206D9315C2A79891A090607D141
S315080022800DB0F0BD2979325C511A10310906F7D024
S3150800229024A151F8204007462046FEF79BFA03285A
S315080022A0EED12879F25D3946904209D10420002200
S315080022B00690CDE9072202A80AA9FEF745F822E00A
S315080022C040F290022879C2F2000202EB012101EBEA
S315080022D00013000108581A7959799F79DE689B68B6
S315080022E00029CDE90A362B7918BF0121013303F0FD
S315080022F00F032B718B0004AE46F821000693089253
S3150800230057B10220079004A902AA01AB2046FEF79E
S31508002310F9F80DB0F0BD00BF0020002A0790CAD119
S31508002320F1E700BF94040020F804002010B5044625
S3150800233000F0A3FB412C3CBF002010BD592C27D828
S3150800234041F2876245F2F733CCF6D962C4F210033C
S3150800235000F0A6FB0023C4F25903002200F01AFA83
S3150800236048F6DA2242F2F743C6F2FD52C4F22103D6
S3150800237000F068F947F6FA6247F27433CBF66A4218
S31508002380CCF2260300F05EF900F02AF910BD00BF72
S31508002390882C27D840F656624BF69D73CBF22D2231
S315080023A0C4F2400300F07CFB0023C4F25903002268
S315080023B000F0F0F94EF6A70249F2FF53C2F648625A
S315080023C0C4F2510300F03EF941F6A0224DF624630B
S315080023D0CDF62F52CCF2580300F034F900F000F98C
S315080023E010BD00BF952C27D846F67F2248F29343A6
S315080023F0C7F2BC42C4F2600300F052FB0023C4F2E9
S315080024005903002200F0C6F94AF2053245F60103DF
S31508002410C3F69222C4F2710300F014F944F6BA1214
S3150800242049F62B13C0F20C22CCF27B0300F00AF912
S3150800243000F0D6F810BD00BFA12C27D847F6EE420B
S315080024404EF25E63C3F23F52C4F2660300F028FB05
S315080024500023C4F25903002200F09CF94DF6C64247
S3150800246040F67C33C8F2B542C4F2780300F0EAF8C5
S315080024704FF2B63248F67853CDF2FD42CCF28303DA
S3150800248000F0E0F800F0ACF810BD00BFAA2C27D881
S3150800249048F2123244F6A153CCF6C022C4F25603CF
S315080024A000F0FEFA0023C4F25903002200F072F984
S315080024B04BF6D34246F61D33C1F2E342C4F2670334
S315080024C000F0C0F84AF6084243F66473C5F61C22C3
S315080024D0CCF2710300F0B6F800F082F810BD00BF28
S315080024E0B52C23D846F2420246F22233CDF2E50253
S315080024F0C4F2600300F0D4FA0023C4F259030022A0
S3150800250000F048F947F2DF1243F2E443C8F68A625C
S31508002510C4F2710300F096F843F60003CCF27B038D
S31508002520002200F08FF800F05BF810BDBD2C27D80C
S3150800253048F6443240F2FB13CEF26C72C4F25903E9
S3150800254000F0AEFA0023C4F25903002200F022F983
S3150800255045F6087244F21523C4F69842C4F26A0393
S3150800256000F070F84DF2E50249F6F923CDF622326D
S31508002570CCF2730300F066F800F032F810BD00BF25
S31508002580D12C27D84AF2F0724FF63753C4F6C63222
S31508002590C4F2600300F084FA0023C4F2590300224F
S315080025A000F0F8F84CF6EF124DF2AD63C4F2C32210
S315080025B0C4F2710300F046F845F2046249F2B21318
S315080025C0C2F60E52CCF27C0300F03CF800F008F894
S315080025D010BD00BF47F23940C4F2E32010BD000029
S315080025E021F0004201F00043A2F16052B2F5801FCB
S315080025F028BFD2F17F6C0BD95FEA001C43EAC202FE
S3150800260042EB507018BF704728BF20F00100704792
S31508002610B2F5801FBCBF184670474FEA410C1CF53F
S31508002620001F02D2084600F02CBF70B500F0E2FA8F
S3150800263000000089FFF7F6BF4FF00040A0F58000C4
S315080026407047000010B591EA030F48BF83F00043B6
S3150800265000F12C83841A71EB030C05D2121943EB93
S315080026600C03001B61EB0C014FEA1154A4EB135C3D
S31508002670DFF81CE11EEA430F18BF9EEA445F00F02C
S31508002680748021EA045123EA0E0343F48013DCF133
S31508002690200E32D322FA0CFE10EB0E0023FA0CFEA3
S315080026A041EB0E01CCF1200E03FA0EFE10EB0E00E4
S315080026B0CCF1200E51F10001B1F5801F32D201EBA9
S315080026C0045112FA0EF2BDE8104058BF7047401C7C
S315080026D038BF5FEA420218BF7047002814BF20F0CF
S315080026E0010041F100014FEA410313F5001F38BF0D
S315080026F07047A1F1C04100F0CBBA012A43EB0302AF
S31508002700ACF1200CDCF11F0E32BF4FF0000E23FA9D
S315080027100CF310EB030041EB0451B4EB115FD0D07E
S31508002720A1EB045101F58011490801EB04515FEA58
S3150800273030000ED350F1000038BF12FA0EFE08D151
S31508002740BDE81040C9E7401C38BF5FEA4202CAD15B
S31508002750C3E7BDE810404FEA410313F5001F38BF31
S315080027607047A1F1C04100F093BA9EEA445F08D0D1
S3150800277011EA5E0FBDE8104004BF01F000410020D9
S315080027807047BDE8104070B500F034FA64FBBE3EF1
S315080027900000E0FF2DE9C04130B4DFF8A8C23CEAEA
S315080027A0111418BF3CEA131400F0F0801CEA111447
S315080027B081EA030544EAD57418BF1CEA131500F02C
S315080027C0CB80A4EB050404F17F7404F500344FF0C4
S315080027D0004545EAC12145EAC32341EA505143EA87
S315080027E052534FEAC0204FEAC222994208BF90428C
S315080027F000F0A0804FEA13650FF24816765D4FEA9F
S31508002800134506FB05F7C7F1807706FB07F74FEA7E
S31508002810D737A7FB03687642A7FB06CEC8F58038EC
S3150800282038BFA8F1010807FB08E6A6FB028C4FF0A3
S31508002830000EE6FB03CED8F100086FEA0C0C5CF13B
S31508002840000C6FEA0E0E4EF1004EA6FB0C584FF028
S315080028500007E6FB0E87A1FB08C6A0FB07CE16EB12
S315080028600E064FF0000545F10005E1FB076515F179
S31508002870E04E7EBFA4F580345FEA46066D4116F148
S31508002880800745F100054FEA172747EA05674FEA2B
S3150800289015254FEA0666A6F1DE46B6F1805F20D911
S315080028A0384605EBC47124F0010C01EB0C11BCF1A0
S315080028B0FE6F02D8F0BCBDE8008124425CBF01F57A
S315080028C0801E9EEAC47F02D4F0BCBDE80081244283
S315080028D000F13980A1F1C041F0BCBDE8004100F02B
S315080028E0D7B94FEAD02040EA41504FEAD1214FEA02
S315080028F0D22242EA43524FEAD323A7FB028607FBBA
S31508002900036605FB02661EEA0E0F58BFA6EB0056C5
S31508002910B6EB00564FEA520E4EEAC37E18EB0E0E81
S3150800292056EB530EBCD518EB02085E417F1C55F1D9
S315080029300005B5E74FF480154FF000074FF0000685
S315080029404FF00008ACE701F1C04101F000414FF03B
S315080029500000F0BCBDE800810CEA131511EA0C1F53
S3150800296000D00CE013EA0C1F00F025804FF00000A1
S3150800297081EA030101F00041F0BCBDE80081F0BC2A
S31508002980BDE8004181EA030100F082B9F0BCBDE868
S31508002990004170B500F02EF9097EFC3E00F007B83C
S315080029A04FF0000081EA030101F00041704781EA17
S315080029B0030100F06DB9F0BCBDE8004122494FF0B3
S315080029C000007047FFFDFBF9F7F5F4F2F0EEEDEBCA
S315080029D0E9E8E6E4E3E1E0DEDDDBDAD8D7D5D4D30F
S315080029E0D1D0CFCDCCCBCAC8C7C6C5C4C2C1C0BF5B
S315080029F0BEBDBCBBBAB9B8B7B6B5B4B3B2B1B0AF61
S31508002A00AEADACABAAA9A8A8A7A6A5A4A3A3A2A144
S31508002A10A09F9F9E9D9C9C9B9A99999897979695FF
S31508002A2095949393929191908F8F8E8E8D8C8C8B9B
S31508002A308B8A898988888787868585848483838223
S31508002A40828181800000FF070000F87F10F00042B5
S31508002A5048BF4042B0FA80F310FA03F10AD0C3F136
S31508002A601D0303F5806302EB03524FEA415002EB64
S31508002A70D12170474FF000007047B0FA80F310FA82
S31508002A8003F10AD0C3F11D0303F580634FEA03522D
S31508002A904FEA415002EBD12170474FF000007047D2
S31508002AA070B5DFF848C11CEA111E1EBF1CEA1315D3
S31508002AB09EEA0C0F95EA0C0F00F06F8081EA03047A
S31508002AC04EEAD47EAE4421EA4C1123EA4C1341F473
S31508002AD0801143F48013AEF17F7EA1FB024CA0FB6C
S31508002AE00365361955EB0C05A1FB034C4CF10003A5
S31508002AF0A0FB021C16EB0C06654153F100030942C4
S31508002B0018BF46F0010613F4007F0BD14FEA0331D4
S31508002B104FEA053041EA155140EA165034036FF082
S31508002B2003020AE04FEAC3214FEAC52041EA55519C
S31508002B3040EA5650F4026FF0020202EB2E4201EB15
S31508002B40025585EACE710AD05FEA440C18BF24F014
S31508002B50004450F1000041F1000120EAD47040F22F
S31508002B60FE7C624500D270BDA84214BF4FF0804477
S31508002B704FF04044002E08BF0024BEF1806FA8BF66
S31508002B80A1F1C041BDE8704080F2828001F1C041E8
S31508002B9001F000414FF0000070470CEA13159EEA59
S31508002BA00C0F18BF95EA0C0F06D081EA030E4FF0FA
S31508002BB000000EF0004170BD00F01CF88900013ECF
S31508002BC000F007B800F009B84FEA430C5FEA5C5C0E
S31508002BD008D081EA030100F05BB84FEA410C5FEACE
S31508002BE05C5CF6D102494FF0000070470000FF0711
S31508002BF00000F87F0EF1020E2EF0030E5EF8046B4D
S31508002C00364205D4012A43EB030515F5001F12D8F1
S31508002C10012841EB010C1CF5001F0CD80ED14FEA18
S31508002C20D17C0CEB4C0C0CF1020C15F5001F08BFFF
S31508002C304CEBD37C04E04FF0080C01E04FEAD37C60
S31508002C400CEB4C0526FA05F606F00706B6F1040C59
S31508002C5006D20EEB860CBDE870404CF0010C6047BE
S31508002C60DFE80CF0090B02024FF00041A1F5002144
S31508002C704FF0000070BD19461046012851EB0104BB
S31508002C8018BFD4F5001484BF002001F0004170BDC0
S31508002C900808A0F500114FEA3101704710B591EA0E
S31508002CA0030F48BF83F000433FF5D4AC841A71EB99
S31508002CB0030C07D28CF0004C121943EB0C03001BD3
S31508002CC061EB0C014FEA1154A4EB135CDFF8A4E1A5
S31508002CD01EEA430F18BF9EEA445F00F0B48021EA5B
S31508002CE0045123EA6E035242C3EB6E0338BF5B1EE0
S31508002CF0DCF1200E25D322FA0CFE10EB0E0043FA67
S31508002D000CFE41EB0E01CCF1200E03FA0EFE10EB81
S31508002D100E00CCF1200E51F1000129D401EB04512B
S31508002D2012FA0EF2BDE8104058BF7047401C1CBF8F
S31508002D30B2F1004F704700280CBF491C20F0010073
S31508002D40704712EB020E43EB030218BF4FF0010E59
S31508002D504EEA4202ACF1200CDCF11E0E56D943FABB
S31508002D600CFE10EB0E00CCF11E0E51F1FF31D5D53D
S31508002D700EF1010E12FA0EFE404141EB010101EB84
S31508002D80445C5FEA5C5C10D901EB045110EBDE7021
S31508002D9038BFBEF1004FBDE8104018BF7047002885
S31508002DA00CBF491C20F00100704734D24FEAD42CDE
S31508002DB024F4006411F500111BD0B1FA81F20B3A24
S31508002DC0A41AA41ED2F12003914030FA03F3194342
S31508002DD0904001EBCC7101EB0451002CBDE810408A
S31508002DE0A8BF704701F1C04101F000414FF0000053
S31508002DF07047B0FA80F310FA03F102D1BDE810402B
S31508002E007047E41A173C4805C90AE2E701EB045182
S31508002E10BDE81040704749104FEA300001EB0451F5
S31508002E20BDE8104002E04FF0000170474A0008BFB5
S31508002E300042F8D0B2F5001F28BF704701F00041E4
S31508002E404FF0000070479EEA445F07D011EA5E0F14
S31508002E50BDE8104004BF002100207047BDE81040BF
S31508002E6070B5FFF7C7FE00BF40DFF63E104683F099
S31508002E70004170470000E0FF43004FEAD30C4FEAD9
S31508002E803C0C43401FBF40070CF1605113F0FE4F46
S31508002E9070471CF0006F03D10CF00041002070470A
S31508002EA00CF0004343EA507040EACC0010B500F03D
S31508002EB0A2FA00BF000000924FEA0001FFF7E8BE41
S31508002EC04FF00041A1F500214FF0000070470000C7
S31508002ED090EA010F48BF81F0004100F1DE82421AF4
S31508002EE03CBF801A89184FEAD052A2EBD1534FF053
S31508002EF07F4C1CEA410F18BF9CEA026F00F03B802A
S31508002F004FF0004C4CEA00204CEA012121FA03FC60
S31508002F1010EB0C0C1ED202F1FF325FEA1C2040EBCC
S31508002F20C25038BF70471CF07F0F4FEA400C18BFDD
S31508002F30BCF17F4F38BF7047C3F12003994008BFE3
S31508002F4020F00100BCF17F4F38BF7047A0F1C040A8
S31508002F5000F097BA4FEA3C00000A40EBC25028BF7F
S31508002F601CF0FF0F4FEA400CE6D018BFBCF17F4FAC
S31508002F7038BF7047EAE79CEA026F05D010EA5C0F93
S31508002F8008BF00F00040704710B500F034FA00BFE3
S31508002F9064FBBE3E10B500F0F5F80CBF012000201A
S31508002FA010BD10B500F0EEF814BF0120002010BDCA
S31508002FB010B500F037F98CBF0120002010BD10B500
S31508002FC000F030F92CBF0120002010BD10B500F02C
S31508002FD05DF994BF0120002010BD10B500F056F928
S31508002FE034BF0120002010BD401058BFC0F140403A
S31508002FF0491058BFC1F140418142EFF30080704744
S315080030004FF47F0C1CEAD0121EBF1CEAD11392EAB9
S315080030100C0F93EA0C0F00F0858090EA010F48BF69
S3150800302042F4807240F4000C41F400002CF07F4119
S3150800303020F07F4000B5A2EB030281420FF2081C84
S31508003040ACEB504E9EF800E0C0F100004FEA4E0E81
S3150800305000FB0EFC38BF49004FEA2C1C0CFB0EF394
S315080030604FEACE1E0EEB635E4FEA112C0EFB0CFCEC
S315080030704FEAC1214FEA1C5300FB031102F5FA027D
S315080030804FEA112C0EFB0CFC4FEA01314FEADC4CDF
S3150800309000FB0C1142EB2242C14228BF09184CEB37
S315080030A003335DF804EB10EB410143EBC250B2F574
S315080030B07C0F38BF704729D512F0F00F1CBF00F1FE
S315080030C0C04000F00040704700818283848586876F
S315080030D088898B8C8D8E8F919293959697999A9CC9
S315080030E09D9FA0A2A3A5A7A8AAACAEB0B2B3B5B738
S315080030F0B9BCBEC0C2C5C7C9CCCED1D4D7D9DCDF0E
S31508003100E2E6E9ECF0F3F7FAFE0000004FEA400CBD
S315080031100CF1807CBCF17E4F28BF7047B0F1C040EF
S3150800312000F0AFB90CEAD11390EA010F48BF42F498
S315080031308072624538BF634507D213F47F0F16D0F5
S3150800314080EA010000F00040704710B500F053F91E
S31508003150097EFC3E00F005B880EA010000F0004058
S31508003160704780EA010000F0004000F08AB912F4C6
S315080031707F0F04BF0248704780EA010000F081B95A
S315080031800000C07F50EA010C00F113801CF5000F07
S3150800319058BFBCF5000F01D48842704707D710F511
S315080031A0000F58BF11F5000F15D4884270478942A1
S315080031B070471CF5000F04D5BCF5000FF7D5814202
S315080031C070474FF0807C1CEB400F38BF1CEB410F5B
S315080031D001D28142704710B500F00DF992244900DA
S315080031E04FF000504FF08051FFF7FEBE41000B0E26
S315080031F0D3F19E0208D950F400034FEA032323FAB9
S3150800320002F048BF4042704710B500F0F4F800BF1E
S3150800321049922480002070476FF0004282EA20001D
S315080032207047000050EA010C00F113801CF5000FEE
S3150800323058BFBCF5000F01D48842704707D710F570
S31508003240000F58BF11F5000F15D488427047894200
S3150800325070471CF5000F04D5BCF5000FF7D5814261
S3150800326070474FF0807C1CEB400F38BF1CEB410FBA
S3150800327001D28142704710B500F0BDF8922449008A
S315080032804FF080504FF00051FFF7AEBE50EA010CE8
S3150800329000F113801CF5000F58BFBCF5000F01D4D0
S315080032A08842704707D710F5000F58BF11F5000F71
S315080032B015D488427047894270471CF5000F04D51B
S315080032C0BCF5000FF7D5814270474FF0807C1CEBA8
S315080032D0400F38BF1CEB410F01D28142704710B531
S315080032E000F089F8922449004FF000504FF08051C1
S315080032F0FFF77ABE4FF47F0C1CEAD0121EBF1CEAF9
S31508003300D11392EA0C0F93EA0C0F00F0478090EA6B
S31508003310010F48BF42F480724FF0004C4CEA00207F
S315080033204CEA012102EB0302A0FB0113A2F50002FD
S31508003330002918BF43F001035B0028BF4FEA330397
S3150800334042EB22425FEA132C4CEBC2502EBFBCEB79
S31508003350436FB2F57C0F70474FEA036CBCF1004F20
S3150800336008BF20F00100B2F57C0F38BF70470BD5B7
S3150800337082F0FF0212F5803FC8BF704700F1C040D7
S31508003380D8BF00F00040704700F5000C5FEA4C0C0F
S3150800339048BF7047B0F1C04000F073B80CEAD113CB
S315080033A090EA010F48BF42F48072624538BF634510
S315080033B004D280EA010000F00040704710B500F022
S315080033C01AF800BF8900013E00F007B800F009B8F6
S315080033D05FEA410C5FEA1C6C08D080EA010000F045
S315080033E050B85FEA400C5FEA1C6CF6D14FF000401B
S315080033F0A0F5800070470EF1020E2EF0030E5EF85F
S31508003400044B244204D44FEA4102B2F17F4F11D84B
S315080034104FEA4003B3F17F4F0CD80ED14FEAD07C68
S315080034200CEB4C0C0CF1020CB2F17F4F08BF4CEBC5
S31508003430D17C04E04FF0080C01E04FEAD17C0CEB9C
S315080034404C0324FA03F404F00704B4F1040C06D27E
S315080034500EEB840CBDE810404CF0010C6047DFE829
S315080034600CF0070802024FF00040A0F5800010BDDE
S315080034700846420018BFD2F1807288BF00F00040AB
S3150800348010BDFF2141EAD050C005704790EA010FF0
S3150800349048BF81F000413FF522AD421A04D882F0B8
S315080034A00042A0EB020011444FEAD052A2EBD153DE
S315080034B04FF07F4C1CEA410F18BF9CEA026F4AD0B6
S315080034C04FF0004C4CEA00204CEA012121FA03FC9B
S315080034D0B0EB0C0C0FD412F0FE0F36D05FEA4C009E
S315080034E01DD5001240EBC25038BF70471CF03F0F85
S315080034F018BF70470BE05FEA1C20A2F1010240EBFF
S31508003500C25038BF70471CF07F0F18BF7047C3F111
S315080035102003994014BF401E20F0010070474FEA6F
S315080035201223800808BF7047B0FA80FCA2EB0C0291
S31508003530CCF1280C60FA0CF093EA122F04BF00EBCA
S31508003540C25070474FEAC3707047130A5FEADC102F
S3150800355008BF7047F6E79CEA026F04D010EA5C0FD2
S3150800356008BF0020704710B5FFF745FF40DFF63E5D
S3150800357081F00040704700000405060708090000AE
S315080035800000000D00000000000000000102030416
S31508003590060708090102030405060708090A0B0CB1
S315080035A00D0E0F10C8350008000000201800000096
S315080035B0B4010008E035000818000020480B000098
S315080035C0D401000800000000420000000000B442D8
S315080035D00000B44201000000100000000024F400BE
S70508000151A0
